{
    "contractName": "Whitelist",
    "abi": [
        {
            "inputs": [
                {
                    "internalType": "uint8",
                    "name": "_maxWhitelistedAddresses",
                    "type": "uint8"
                }
            ],
            "stateMutability": "nonpayable",
            "type": "constructor"
        },
        {
            "inputs": [],
            "name": "addAddressToWhitelist",
            "outputs": [],
            "stateMutability": "nonpayable",
            "type": "function"
        },
        {
            "inputs": [],
            "name": "maxWhitelistedAddresses",
            "outputs": [
                {
                    "internalType": "uint8",
                    "name": "",
                    "type": "uint8"
                }
            ],
            "stateMutability": "view",
            "type": "function"
        },
        {
            "inputs": [],
            "name": "numAddressesWhitelisted",
            "outputs": [
                {
                    "internalType": "uint8",
                    "name": "",
                    "type": "uint8"
                }
            ],
            "stateMutability": "view",
            "type": "function"
        },
        {
            "inputs": [
                {
                    "internalType": "address",
                    "name": "",
                    "type": "address"
                }
            ],
            "name": "whitelistedAddresses",
            "outputs": [
                {
                    "internalType": "bool",
                    "name": "",
                    "type": "bool"
                }
            ],
            "stateMutability": "view",
            "type": "function"
        }
    ],
    "bytecode": "608060405234801561001057600080fd5b5060405161030438038061030483398101604081905261002f91610048565b6000805460ff191660ff92909216919091179055610072565b60006020828403121561005a57600080fd5b815160ff8116811461006b57600080fd5b9392505050565b610283806100816000396000f3fe608060405234801561001057600080fd5b506004361061004c5760003560e01c806306c933d81461005157806331a72188146100895780634011d7cd146100a85780638e7314d9146100b5575b600080fd5b61007461005f3660046101ea565b60016020526000908152604090205460ff1681565b60405190151581526020015b60405180910390f35b6000546100969060ff1681565b60405160ff9091168152602001610080565b6002546100969060ff1681565b6100bd6100bf565b005b3360009081526001602052604090205460ff16156101305760405162461bcd60e51b815260206004820152602360248201527f53656e6465722068617320616c7265616479206265656e2077686974656c69736044820152621d195960ea1b60648201526084015b60405180910390fd5b60005460025460ff91821691161061019f5760405162461bcd60e51b815260206004820152602c60248201527f4d6f7265206164647265737365732063616e27742062652061646465642c206c60448201526b1a5b5a5d081c995858da195960a21b6064820152608401610127565b3360009081526001602081905260408220805460ff19168217905560028054919290916101d090849060ff1661021a565b92506101000a81548160ff021916908360ff160217905550565b6000602082840312156101fc57600080fd5b81356001600160a01b038116811461021357600080fd5b9392505050565b600060ff821660ff84168060ff0382111561024557634e487b7160e01b600052601160045260246000fd5b01939250505056fea2646970667358221220505a8784b59248f90b573f052492458579d760629cf2241f672695ba8c6ec20464736f6c634300080d0033",
    "sourcePath": "/Users/pierce/Whitelist-Dapp/Hardhat/contracts/Whitelist.sol",
    "compiler": {
        "name": "solc",
        "version": "0.8.13+commit.abaa5c0e"
    },
    "functionHashes": {
        "addAddressToWhitelist()": "8e7314d9",
        "maxWhitelistedAddresses()": "31a72188",
        "numAddressesWhitelisted()": "4011d7cd",
        "whitelistedAddresses(address)": "06c933d8"
    },
    "gasEstimates": {
        "creation": {
            "codeDepositCost": "128600",
            "executionCost": "infinite",
            "totalCost": "infinite"
        },
        "external": {
            "addAddressToWhitelist()": "57409",
            "maxWhitelistedAddresses()": "2313",
            "numAddressesWhitelisted()": "2335",
            "whitelistedAddresses(address)": "2463"
        }
    }
}